:100000000C942A000C9447000C9447000C94470071
:100010000C9447000C9447000C9447000C94F10793
:100020000C9447000C9447000C94BE070C944700B6
:100030000C9447000C9447000C9447000C94470024
:100040000C9447000C9447000C9447000C94470014
:100050000C94470011241FBECFE5D8E0DEBFCDBF12
:1000600011E0A0E6B0E0E0E2F0E402C005900D92FD
:10007000A838B107D9F711E0A8E8B1E001C01D9296
:10008000AC38B107E1F70E9458110C940E200C9483
:100090000000EF92FF920F931F937B018C0120E0F1
:1000A00030E040E05FE40E94F50388238CF0C80153
:1000B000B70120E030E040E05FE40E94C1010E940F
:1000C00055049B01AC01205030404040504806C0D0
:1000D000C801B7010E9455049B01AC01B901CA01D6
:1000E0001F910F91FF90EF900895A0E0B0E0EBE733
:1000F000F0E00C94D71FDC012B01FA019C919230A7
:1001000008F439C1EB018881823008F433C194309E
:1001100069F4843009F02FC111969C91119789815F
:10012000981709F428C1A0E6B0E025C1843009F48D
:1001300021C18230A9F4923009F01DC19A01AD01AC
:1001400088E0EA010990AE01E90109929E0181501F
:10015000C1F7E201898111969C918923818308C1AD
:10016000923009F407C112962D903C901397EB0141
:100170008A819B811496AD90BD90CD90DC901797AD
:10018000EC80FD800E811F819101281B390BB90184
:1001900037FF04C066277727621B730B6032710537
:1001A0000CF061C0121613066CF537014801062EDB
:1001B00004C096948794779467940A94D2F721E0C8
:1001C00030E040E050E004C0220F331F441F551FB1
:1001D0006A95D2F721503040404050402E213F21B7
:1001E00040235123211531054105510521F021E01E
:1001F00030E040E050E079018A01E628F72808293C
:1002000019293CC0232BD1F1260E371E350146019A
:10021000062E04C096948794779467940A94D2F734
:1002200021E030E040E050E004C0220F331F441FC3
:10023000551F6A95D2F721503040404050402A2146
:100240003B214C215D21211531054105510521F04E
:1002500021E030E040E050E059016A01A628B728CB
:10026000C828D9280BC0821593052CF01C01AA249C
:10027000BB24650103C0EE24FF24870111969C91E5
:10028000D20111968C91981709F445C0992339F041
:10029000A80197012A193B094C095D0906C0A6016E
:1002A00095012E193F09400B510B57FD08C01182D3
:1002B0003382228224833583468357831DC081E0A5
:1002C00081833382228288279927DC01821B930B4A
:1002D000A40BB50B84839583A683B7830DC0220F2F
:1002E000331F441F551F24833583468357838281E0
:1002F000938101979383828324813581468157813D
:10030000DA01C9010197A109B1098F5F9F4FAF4F72
:10031000BF4328F30BC0918333822282EA0CFB1C7B
:100320000C1D1D1DE482F5820683178383E0808304
:10033000248135814681578157FF1AC0C901AA27F8
:1003400097FDA095BA2F81709070A070B0705695EF
:10035000479537952795822B932BA42BB52B848318
:100360009583A683B7838281938101969383828349
:10037000DF0101C0D201CD01CDB7DEB7E2E10C94BF
:10038000F31FA0E2B0E0E7ECF1E00C94E31F698317
:100390007A838B839C832D833E834F835887E9E048
:1003A000EE2EF12CEC0EFD1ECE010196B7010E943F
:1003B00046068E010F5E1F4FCE010596B8010E94C2
:1003C00046068A8991E089278A8BC701B801AE0168
:1003D000475E5F4F0E9475000E947105A096E6E09F
:1003E0000C94FF1FA0E2B0E0E8EFF1E00C94E31FF3
:1003F00069837A838B839C832D833E834F835887C5
:10040000F9E0EF2EF12CEC0EFD1ECE010196B701A6
:100410000E9446068E010F5E1F4FCE010596B80161
:100420000E944606C701B801AE01475E5F4F0E94B9
:1004300075000E947105A096E6E00C94FF1FA0E2F3
:10044000B0E0E5E2F2E00C94D71F69837A838B83F6
:100450009C832D833E834F835887CE010196BE0136
:10046000675F7F4F0E944606CE010596BE016F5E14
:100470007F4F0E9446069985923088F089898230A4
:10048000C8F0943019F4823051F404C0843029F457
:10049000923081F480E690E0C6C0923049F420E0CA
:1004A0009A858A89981321E02A87CE010996BBC0D4
:1004B000823049F420E09A858A89981321E02A8BBA
:1004C000CE014196B0C02D843E844F8458886D88FB
:1004D0007E888F88988CEE24FF248701AA24BB2471
:1004E000650140E050E060E070E0E0E0F0E0C10174
:1004F00081709070892BE9F0E60CF71C081D191D1E
:100500009A01AB012A0D3B1D4C1D5D1D80E090E062
:10051000A0E0B0E0E614F7040805190520F481E036
:1005200090E0A0E0B0E0BA01A901480F591F6A1F8E
:100530007B1FAA0CBB1CCC1CDD1C97FE08C081E0F5
:1005400090E0A0E0B0E0A82AB92ACA2ADB2A3196B6
:10055000E032F10549F0660C771C881C991C569412
:10056000479437942794C3CFFA85EA892B893C892D
:100570008B859C85280F391F2E5F3F4F17C0CA01FE
:1005800081709070892B61F016950795F794E79428
:1005900080E090E0A0E0B0E8E82AF92A0A2B1B2BC3
:1005A00076956795579547952F5F3F4F77FDE7CF36
:1005B0000CC0440F551F661F771F17FD4160EE0CDE
:1005C000FF1C001F111F21503040403090E05907A0
:1005D00090E0690790E4790760F32B8F3C8FDB0193
:1005E000CA018F779070A070B07080349105A1051A
:1005F000B10561F447FD0AC0E114F10401051105DC
:1006000029F0405C5F4F6F4F7F4F40781A8EFE1786
:1006100011F081E08A8F4D8F5E8F6F8F78A383E01A
:10062000898FCE0149960E947105A096E2E10C9453
:10063000F31FA8E1B0E0EFE1F3E00C94DF1F698362
:100640007A838B839C832D833E834F835887B9E0C5
:10065000EB2EF12CEC0EFD1ECE010196B7010E948F
:1006600046068E010F5E1F4FCE010596B8010E940F
:1006700046062985223008F47EC03989323010F4CC
:10068000B8017CC08A859A8989278A87243011F02D
:10069000223031F4231709F06EC060E670E06EC0BE
:1006A000343039F41D861E861F86188A1C861B86E8
:1006B00004C0323021F484E08987B7015FC02B8504
:1006C0003C858B899C89281B390B3C872B87ED84C3
:1006D000FE840F851889AD88BE88CF88D88CEA142F
:1006E000FB040C051D0540F4EE0CFF1C001F111F40
:1006F000215030403C872B8720E030E040E050E044
:1007000080E090E0A0E0B0E460E070E0EA14FB0478
:100710000C051D0540F0282B392B4A2B5B2BEA18C2
:10072000FB080C091D09B695A79597958795EE0CC2
:10073000FF1C001F111F6F5F7F4F6F31710531F775
:10074000DA01C9018F779070A070B0708034910584
:10075000A105B10561F427FD0AC0E114F10401050A
:10076000110529F0205C3F4F4F4F5F4F20782D87B8
:100770003E874F87588BBE01675F7F4FCB010E943A
:1007800071056896EAE00C94FB1FA8E1B0E0EBEC81
:10079000F3E00C94E31F69837A838B839C832D831E
:1007A0003E834F83588789E0E82EF12CEC0EFD1E26
:1007B000CE010196B7010E9446068E010F5E1F4FC3
:1007C000CE010596B8010E9446068985823040F028
:1007D0008989823028F0C701B8010E94BE0601C095
:1007E0008FEF6896E6E00C94FF1FA8E1B0E0EBEF16
:1007F000F3E00C94E31F69837A838B839C832D83BE
:100800003E834F83588789E0E82EF12CEC0EFD1EC5
:10081000CE010196B7010E9446068E010F5E1F4F62
:10082000CE010596B8010E9446068985823040F0C7
:100830008989823028F0C701B8010E94BE0601C034
:100840008FEF6896E6E00C94FF1FA8E1B0E0EBE2C2
:10085000F4E00C94E31F69837A838B839C832D835C
:100860003E834F83588789E0E82EF12CEC0EFD1E65
:10087000CE010196B7010E9446068E010F5E1F4F02
:10088000CE010596B8010E9446068985823040F067
:100890008989823028F0C701B8010E94BE0601C0D4
:1008A00081E06896E6E00C94FF1FACE0B0E0EBE579
:1008B000F4E00C94E71F69837A838B839C83CE01D9
:1008C0000196BE016B5F7F4F0E9446068D8182308C
:1008D00061F1823050F1843021F48E81882351F10E
:1008E0002EC02F81388537FD20C06E812F31310514
:1008F0001CF06623F9F023C08EE190E0821B930B7D
:1009000029853A854B855C8504C056954795379572
:1009100027958A95D2F76623B1F05095409530958A
:1009200021953F4F4F4F5F4F0EC020E030E040E039
:1009300050E009C02FEF3FEF4FEF5FE704C020E02A
:1009400030E040E050E8B901CA012C96E2E00C9496
:100950000320A8E0B0E0EFEAF4E00C94DF1F7B0195
:100960008C01611571058105910519F482E0898377
:1009700060C083E089838EE1C82ED12CDC82CB82DB
:10098000ED82FE820F831887C801B7010E942205FD
:10099000FC013197F7FF3BC0222733272E1B3F0B6B
:1009A00057016801022E04C0D694C794B794A79447
:1009B0000A94D2F740E050E060E070E081E090E01F
:1009C000A0E0B0E004C0880F991FAA1FBB1F2A95A2
:1009D000D2F70197A109B1098E219F21A023B1234C
:1009E0000097A105B10521F041E050E060E070E022
:1009F0004A295B296C297D294D835E836F83788723
:100A00008EE190E08E1B9F0B9C838B8312C03097EE
:100A100081F00E2E04C0EE0CFF1C001F111F0A9463
:100A2000D2F7ED82FE820F831887CE1ADF0ADC82AE
:100A3000CB821A82CE0101960E9471052896EAE0C7
:100A40000C94FB1FEF92FF920F931F937B018C017D
:100A500080E0E81680E0F80681E0080780E01807EB
:100A600088F48FEFE816F1040105110531F028F044
:100A700088E090E0A0E0B0E017C080E090E0A0E067
:100A8000B0E012C080E0E81680E0F80680E00807D9
:100A900081E0180728F088E190E0A0E0B0E004C011
:100AA00080E190E0A0E0B0E020E230E040E050E003
:100AB000281B390B4A0B5B0B04C016950795F7945E
:100AC000E7948A95D2F7F701E859FF4F8081281BF8
:100AD000310941095109C9011F910F91FF90EF9010
:100AE0000895DF92EF92FF920F931F93FC01E48031
:100AF000F58006811781D1808081823048F480E0C2
:100B000090E0A0E1B0E0E82AF92A0A2B1B2BA5C04F
:100B1000843009F49FC0823021F4EE24FF24870141
:100B200005C0E114F1040105110519F4E0E0F0E05D
:100B300096C0628173819FEF623879070CF05BC0C9
:100B400022E83FEF261B370B2A3131052CF020E03D
:100B500030E040E050E02AC0B801A701022E04C0F6
:100B600076956795579547950A94D2F781E090E07E
:100B7000A0E0B0E004C0880F991FAA1FBB1F2A95F0
:100B8000D2F70197A109B1098E219F21A023B1239A
:100B90000097A105B10521F081E090E0A0E0B0E070
:100BA0009A01AB01282B392B4A2B5B2BDA01C901A7
:100BB0008F779070A070B07080349105A105B10559
:100BC00039F427FF09C0205C3F4F4F4F5F4F04C0EF
:100BD000215C3F4F4F4F5F4FE0E0F0E02030A0E05E
:100BE0003A07A0E04A07A0E45A0710F0E1E0F0E07D
:100BF00079018A0127C06038710564F5FB01E1586D
:100C0000FF4FD801C7018F779070A070B07080340B
:100C10009105A105B10539F4E7FE0DC080E490E02F
:100C2000A0E0B0E004C08FE390E0A0E0B0E0E80E08
:100C3000F91E0A1F1B1F17FF05C016950795F7948D
:100C4000E794319687E016950795F794E7948A958F
:100C5000D1F705C0EE24FF248701EFEFF0E06E2FFF
:100C6000679566276795902F9F77D794DD24D79453
:100C70008E2F8695492F462B582F5D29B701CA0123
:100C80001F910F91FF90EF90DF900895FC01DB0121
:100C9000408151812281622F6F7770E0221F2227CD
:100CA000221F9381892F880F822B282F30E0991FD4
:100CB0009927991F11969C93119721153105A9F534
:100CC000411551056105710511F482E037C082E8D4
:100CD0009FEF13969C938E9312979A01AB0167E056
:100CE000220F331F441F551F6A95D1F783E08C9361
:100CF0000DC0220F331F441F551F12968D919C91DA
:100D00001397019713969C938E931297203080E04F
:100D1000380780E0480780E4580758F314962D936D
:100D20003D934D935C93179708952F3F310579F4C8
:100D3000411551056105710519F484E08C930895FE
:100D400064FF03C081E08C9312C01C9210C02F5727
:100D5000304013963C932E93129783E08C9387E058
:100D6000440F551F661F771F8A95D1F7706414963C
:100D70004D935D936D937C93179708951F93DC01BA
:100D8000FB019C91923008F447C08081823008F4C6
:100D900043C0943051F411961C91843099F58181AF
:100DA000682F70E0611B71093FC0843021F09230E0
:100DB00031F48230B9F18181882389F12DC01196F7
:100DC0001C9111978230F1F081811817D9F4129695
:100DD0002D913C911397828193818217930794F010
:100DE00028173907BCF014968D919D910D90BC91F8
:100DF000A02D2481358146815781281739074A075C
:100E00005B0718F4112341F00AC082179307A40767
:100E1000B50740F4112319F061E070E005C06FEFF1
:100E20007FEF02C060E070E0CB011F910895DF9377
:100E3000CF93CDB7DEB7CF91DF910895DF93CF93F6
:100E4000CDB7DEB7AEE4B0E0EEE4F0E080819181B2
:100E5000877F11969C938E93AFE4B0E0EFE4F0E0CF
:100E6000808191818E7F11969C938E93AFE4B0E048
:100E7000EFE4F0E0808191818D7F11969C938E93B9
:100E8000AEE4B0E0EEE4F0E0808191818460119600
:100E90009C938E93AEE4B0E0EEE4F0E0808191812B
:100EA0008D7F11969C938E93AEE4B0E0EEE4F0E07B
:100EB00080819181816011969C938E93EAE4F0E0A9
:100EC00083E89EE191838083A9E5B0E0E9E5F0E065
:100ED000808180618C93CF91DF910895DF93CF93D0
:100EE00000D0CDB7DEB79A83898389819A819093A8
:100EF0008901809388010F900F90CF91DF91089521
:100F0000DF93CF9300D0CDB7DEB79A8389838981F1
:100F10009A8190938B0180938A010F900F90CF91CB
:100F2000DF910895DF93CF93CDB7DEB7CF91DF91F7
:100F30000895DF93CF93CDB7DEB7AEE4B0E0EEE433
:100F4000F0E0808191818E7F11969C938E93AEE428
:100F5000B0E0EEE4F0E0808191818D7F11969C936A
:100F60008E93AEE4B0E0EEE4F0E0808191818B7F7F
:100F700011969C938E93CF91DF9108951F920F92BB
:100F80000FB60F9211242F933F934F935F936F935C
:100F90007F938F939F93AF93BF93EF93FF93DF93D1
:100FA000CF93CDB7DEB780918801909189010097EA
:100FB00029F0E0918801F09189010995CF91DF91A5
:100FC000FF91EF91BF91AF919F918F917F916F9121
:100FD0005F914F913F912F910F900FBE0F901F90F7
:100FE00018951F920F920FB60F9211242F933F93D3
:100FF0004F935F936F937F938F939F93AF93BF9321
:10100000EF93FF93DF93CF93CDB7DEB780918A0143
:1010100090918B01009729F0E0918A01F0918B016A
:101020000995CF91DF91FF91EF91BF91AF919F9182
:101030008F917F916F915F914F913F912F910F9081
:101040000FBE0F901F901895DF93CF9300D000D064
:101050000F92CDB7DEB789836A834B838981843051
:1010600008F0D4C08A81883008F0D0C08B818130EC
:1010700021F08B81882309F0C9C08981282F30E0B5
:101080003D832C838C819D818130910509F441C081
:101090002C813D81223031052CF48C819D8100977B
:1010A00071F0B4C02C813D812230310509F45BC060
:1010B0008C819D818330910509F47FC0A7C08B810D
:1010C000813099F4AAE3B0E0EAE3F0E040818A815C
:1010D000282F30E081E090E0022E02C0880F991F97
:1010E0000A94E2F7842B8C9391C0AAE3B0E0EAE380
:1010F000F0E040818A81282F30E081E090E0022EEC
:1011000002C0880F991F0A94E2F7809584238C937C
:101110007DC08B81813099F4A7E3B0E0E7E3F0E094
:1011200040818A81282F30E081E090E0022E02C0C9
:10113000880F991F0A94E2F7842B8C9367C0A7E36A
:10114000B0E0E7E3F0E040818A81282F30E081E0E1
:1011500090E0022E02C0880F991F0A94E2F7809552
:1011600084238C9353C08B81813099F4A4E3B0E045
:10117000E4E3F0E040818A81282F30E081E090E0D4
:10118000022E02C0880F991F0A94E2F7842B8C93D9
:101190003DC0A4E3B0E0E4E3F0E040818A81282F81
:1011A00030E081E090E0022E02C0880F991F0A947F
:1011B000E2F7809584238C9329C08B81813099F448
:1011C000A1E3B0E0E1E3F0E040818A81282F30E044
:1011D00081E090E0022E02C0880F991F0A94E2F786
:1011E000842B8C9313C0A1E3B0E0E1E3F0E04081F5
:1011F0008A81282F30E081E090E0022E02C0880F23
:10120000991F0A94E2F7809584238C930F900F9096
:101210000F900F900F90CF91DF910895DF93CF93B0
:1012200000D000D00F92CDB7DEB789836A834B839D
:101230008981282F30E03D832C838C819D818130F2
:10124000910509F441C02C813D81223031052CF4F7
:101250008C819D81009771F0B4C02C813D8122303A
:10126000310509F45BC08C819D818330910509F4BF
:101270007FC0A7C08B81813099F4ABE3B0E0EBE392
:10128000F0E040818A81282F30E081E090E0022E5A
:1012900002C0880F991F0A94E2F7842B8C9391C0A7
:1012A000ABE3B0E0EBE3F0E040818A81282F30E04F
:1012B00081E090E0022E02C0880F991F0A94E2F7A5
:1012C000809584238C937DC08B81813099F4A8E331
:1012D000B0E0E8E3F0E040818A81282F30E081E04F
:1012E00090E0022E02C0880F991F0A94E2F7842B27
:1012F0008C9367C0A8E3B0E0E8E3F0E040818A8126
:10130000282F30E081E090E0022E02C0880F991F64
:101310000A94E2F7809584238C9353C08B818130AB
:1013200099F4A5E3B0E0E5E3F0E040818A81282F5D
:1013300030E081E090E0022E02C0880F991F0A94ED
:10134000E2F7842B8C933DC0A5E3B0E0E5E3F0E049
:1013500040818A81282F30E081E090E0022E02C097
:10136000880F991F0A94E2F7809584238C9329C0F3
:101370008B81813099F4A2E3B0E0E2E3F0E04081B8
:101380008A81282F30E081E090E0022E02C0880F91
:10139000991F0A94E2F7842B8C9313C0A2E3B0E068
:1013A000E2E3F0E040818A81282F30E081E090E0A4
:1013B000022E02C0880F991F0A94E2F780958423B9
:1013C0008C930F900F900F900F900F90CF91DF9113
:1013D0000895DF93CF9300D000D000D0CDB7DEB713
:1013E00089836A835C834B838981282F30E03E8325
:1013F0002D834D815E814130510559F18D819E8152
:101400008230910534F42D813E812115310569F03A
:101410005BC04D815E814230510579F18D819E81A5
:101420008330910509F43DC04FC0E9E3F0E08081CD
:10143000282F30E08A81882F90E0A90102C05595BD
:1014400047958A95E2F7CA018170EB81FC81808320
:101450003BC0E6E3F0E08081282F30E08A81882FCE
:1014600090E0A90102C0559547958A95E2F7CA0117
:101470008170EB81FC81808327C0E3E3F0E0808111
:10148000282F30E08A81882F90E0A90102C055956D
:1014900047958A95E2F7CA018170EB81FC818083D0
:1014A00013C0E0E3F0E08081282F30E08A81882FAC
:1014B00090E0A90102C0559547958A95E2F7CA01C7
:1014C0008170EB81FC81808326960FB6F894DEBF95
:1014D0000FBECDBFCF91DF910895DF93CF9300D0A2
:1014E00000D0CDB7DEB789836A838981282F30E0A9
:1014F0003C832B838B819C818130910541F12B8131
:101500003C81223031052CF48B819C81009761F065
:1015100056C02B813C812230310561F18B819C8149
:1015200083309105D1F14BC0ABE3B0E0EBE3F0E0E9
:1015300040818A81282F30E081E090E0022E02C0B5
:10154000880F991F0A94E2F784278C9338C0A8E388
:10155000B0E0E8E3F0E040818A81282F30E081E0CC
:1015600090E0022E02C0880F991F0A94E2F78427A8
:101570008C9325C0A5E3B0E0E5E3F0E040818A81EB
:10158000282F30E081E090E0022E02C0880F991FE2
:101590000A94E2F784278C9312C0A2E3B0E0E2E35E
:1015A000F0E040818A81282F30E081E090E0022E37
:1015B00002C0880F991F0A94E2F784278C930F903A
:1015C0000F900F900F90CF91DF910895DF93CF93FD
:1015D00000D000D0CDB7DEB789836A838981282FF8
:1015E00030E03C832B838B819C818130910541F1DC
:1015F0002B813C81223031052CF48B819C8100971A
:1016000061F056C02B813C812230310561F18B8124
:101610009C8183309105D1F14BC0ABE3B0E0EBE3AB
:10162000F0E040818A81282F30E081E090E0022EB6
:1016300002C0880F991F0A94E2F7842B8C9338C05C
:10164000A8E3B0E0E8E3F0E040818A81282F30E0B1
:1016500081E090E0022E02C0880F991F0A94E2F701
:10166000842B8C9325C0A5E3B0E0E5E3F0E0408156
:101670008A81282F30E081E090E0022E02C0880F9E
:10168000991F0A94E2F7842B8C9312C0A2E3B0E076
:10169000E2E3F0E040818A81282F30E081E090E0B1
:1016A000022E02C0880F991F0A94E2F7842B8C93B4
:1016B0000F900F900F900F90CF91DF910895DF93CF
:1016C000CF9300D000D0CDB7DEB789836A838981FC
:1016D000843008F055C08A818F3F21F08A818823A9
:1016E00009F04EC08981282F30E03C832B838B8109
:1016F0009C818130910509F12B813C81223031059B
:101700002CF48B819C81009761F03AC02B813C8145
:1017100022303105F1F08B819C818330910529F1D4
:101720002FC08A818F3F29F4EAE3F0E08FEF8083B6
:1017300027C0EAE3F0E0108223C08A818F3F29F4BA
:10174000E7E3F0E08FEF80831BC0E7E3F0E0108277
:1017500017C08A818F3F29F4E4E3F0E08FEF8083A4
:101760000FC0E4E3F0E010820BC08A818F3F29F4C0
:10177000E1E3F0E08FEF808303C0E1E3F0E010826B
:101780000F900F900F900F90CF91DF910895DF93FE
:10179000CF9300D000D0CDB7DEB789836A8389812B
:1017A000843090F58981282F30E03C832B838B8116
:1017B0009C8181309105D1F02B813C812230310513
:1017C0002CF48B819C81009761F01EC02B813C81A1
:1017D0002230310581F08B819C818330910581F02D
:1017E00013C0EBE3F0E08A8180830EC0E8E3F0E011
:1017F0008A81808309C0E5E3F0E08A81808304C0A8
:10180000E2E3F0E08A8180830F900F900F900F90B9
:10181000CF91DF910895DF93CF9300D000D00F9246
:10182000CDB7DEB789837B836A838981843008F0F2
:101830003EC08A819B810097D1F18981282F30E0B9
:101840003D832C838C819D8181309105E1F02C8139
:101850003D81223031052CF48C819D81009761F00F
:1018600026C02C813D8122303105A1F08C819D81E3
:1018700083309105B1F01BC0E9E3F0E08081EA819B
:10188000FB81808314C0E6E3F0E08081EA81FB8184
:1018900080830DC0E3E3F0E08081EA81FB818083F7
:1018A00006C0E0E3F0E08081EA81FB8180830F9055
:1018B0000F900F900F900F90CF91DF910895DF93CD
:1018C000CF9300D00F92CDB7DEB789838981843062
:1018D00008F03EC08981282F30E03B832A838A812B
:1018E0009B8181309105E9F02A813B8122303105CD
:1018F0002CF48A819B81009761F02AC02A813B8168
:1019000022303105B1F08A819B8183309105C9F085
:101910001FC0ABE3B0E0EBE3F0E0808180958C93F7
:1019200017C0A8E3B0E0E8E3F0E0808180958C93F5
:101930000FC0A5E3B0E0E5E3F0E0808180958C93F3
:1019400007C0A2E3B0E0E2E3F0E0808180958C93F1
:101950000F900F900F90CF91DF910895DF93CF9369
:1019600000D00F92CDB7DEB789838981843090F59E
:101970008981282F30E03B832A838A819B818130B3
:101980009105D1F02A813B81223031052CF48A81E6
:101990009B81009761F01EC02A813B812230310576
:1019A00081F08A819B818330910581F013C0EBE344
:1019B000F0E08FEF80830EC0E8E3F0E08FEF8083EC
:1019C00009C0E5E3F0E08FEF808304C0E2E3F0E0DC
:1019D0008FEF80830F900F900F90CF91DF9108953C
:1019E000DF93CF9300D000D0CDB7DEB78B836C836D
:1019F0008B818695869586958A838B81877089836E
:101A00008A8169814C810E9424080F900F900F9069
:101A10000F90CF91DF910895DF93CF9300D000D046
:101A2000CDB7DEB78B836C838B8186958695869543
:101A30008A838B81877089838A8169814C810E9426
:101A40000E090F900F900F900F90CF91DF91089596
:101A5000DF93CF9300D000D00F92CDB7DEB78B834A
:101A60007D836C838B818695869586958A838B8111
:101A7000877089832C813D818A816981A9010E94B7
:101A8000E9090F900F900F900F900F90CF91DF9179
:101A90000895DF93CF9300D00F92CDB7DEB78B833D
:101AA0008B818695869586958A838B8187708983BD
:101AB0008A8169810E946D0A0F900F900F90CF91DB
:101AC000DF910895DF93CF9300D00F92CDB7DEB7AB
:101AD0008B838B818695869586958A838B8187708B
:101AE00089838A8169810E94E60A0F900F900F9086
:101AF000CF91DF910895DF93CF930F92CDB7DEB7EB
:101B000019820EC08981882F90E0FC01E859FE4FB0
:101B100090818981692F0E94F00C89818F5F898370
:101B20008981803278F30F90CF91DF910895DF9310
:101B3000CF93CDB7DEB7E7E2F0E080E48083E6E262
:101B4000F0E087E88083CF91DF910895DF93CF9312
:101B50000F92CDB7DEB78983A7E2B0E0E7E2F0E00D
:101B60008081982F987F89818770892B8C93A6E23A
:101B7000B0E0E6E2F0E0808180648C93E6E2F0E0A1
:101B8000808182958F70882F90E08170907000978F
:101B9000A9F3A6E2B0E0E6E2F0E0808180618C93F8
:101BA000E4E2F0E08081282F30E0E5E2F0E080819F
:101BB000882F90E0982F8827822B932B0F90CF911E
:101BC000DF910895DF93CF93CDB7DEB781E060E07A
:101BD00041E00E94240881E061E041E00E94240885
:101BE00081E062E041E00E94240881E064E041E09D
:101BF0000E94240880E063E041E00E94240880E025
:101C000062E041E00E94240881E065E041E00E943A
:101C1000240881E066E041E00E942408CF91DF9132
:101C20000895DF93CF93CDB7DEB762970FB6F894E0
:101C3000DEBF0FBECDBF8F87688B88898A3008F0E2
:101C4000D1C08889982F917081E060E0492F0E946F
:101C50000E0988898695982F917081E061E0492F5F
:101C60000E940E09888986958695982F917081E04B
:101C700062E0492F0E940E0988898695869586958F
:101C8000982F917081E064E0492F0E940E098F85A2
:101C9000282F30E03A8B298B89899A8982309105E7
:101CA000E1F029893A892330310534F489899A8908
:101CB0008130910561F022C029893A8923303105AC
:101CC00091F089899A898430910599F017C080E054
:101CD00063E040E00E940E0911C080E062E040E055
:101CE0000E940E090BC081E065E040E00E940E09F1
:101CF00005C081E066E040E00E940E0980E090E0CF
:101D0000A0E8BFE38B879C87AD87BE876B857C850A
:101D10008D859E8520E030E04AEF54E40E941F024A
:101D2000DC01CB018F839887A987BA876F8178857B
:101D300089859A8520E030E040E85FE30E94250431
:101D400088232CF481E090E09E838D833FC06F81D7
:101D5000788589859A8520E03FEF4FE757E40E9418
:101D6000C50318164CF56B857C858D859E8520E016
:101D700030E040E251E40E941F02DC01CB01BC01D3
:101D8000CD010E944900DC01CB019E838D830FC0F1
:101D900088EC90E09C838B838B819C810197F1F789
:101DA0009C838B838D819E8101979E838D838D8102
:101DB0009E81009769F714C06F81788589859A851F
:101DC0000E944900DC01CB019E838D838D819E8121
:101DD0009A83898389819A810197F1F79A8389830C
:101DE0000E943D1162960FB6F894DEBF0FBECDBFC4
:101DF000CF91DF910895DF93CF93CDB7DEB7C05475
:101E0000D0400FB6F894DEBF0FBECDBFFE01FF96E7
:101E100091838083FE01FF968081918127E280314A
:101E2000920708F020C2FE01FF96808191812AE08E
:101E300030E0B9010E94861F8EAFFE01FF968081BF
:101E400091812AE030E0B9010E94861FCB012AE08F
:101E500030E0B9010E94861F8DAFFE01FF968081A0
:101E6000918124E630E0B9010E94861FCB012AE06F
:101E700030E0B9010E94861F8CAFFE01FF96808181
:101E8000918128EE33E0B9010E94861FCB012AE040
:101E900030E0B9010E94861F8BAF1AAE19AEDDC1CA
:101EA00084E06BAD0E94110E80E090E0A0E0B0E411
:101EB0008DAB9EABAFABB8AF6DA97EA98FA998AD26
:101EC00020E030E04AEF54E40E941F02DC01CB0125
:101ED00089AB9AABABABBCAB69A97AA98BA99CA91E
:101EE00020E030E040E85FE30E94250488232CF4E2
:101EF00081E090E098AB8FA73FC069A97AA98BA930
:101F00009CA920E03FEF4FE757E40E94C503181655
:101F10004CF56DA97EA98FA998AD20E030E040E294
:101F200051E40E941F02DC01CB01BC01CD010E94E3
:101F30004900DC01CB0198AB8FA70FC088EC90E083
:101F40009EA78DA78DA59EA50197F1F79EA78DA7AA
:101F50008FA598A9019798AB8FA78FA598A90097EF
:101F600069F714C069A97AA98BA99CA90E944900A4
:101F7000DC01CB0198AB8FA78FA598A99CA78BA755
:101F80008BA59CA50197F1F79CA78BA783E06CAD6F
:101F90000E94110E80E090E0A0E0B0E48FA398A72B
:101FA000A9A7BAA76FA178A589A59AA520E030E0D6
:101FB0004AEF54E40E941F02DC01CB018BA39CA3D7
:101FC000ADA3BEA36BA17CA18DA19EA120E030E0BA
:101FD00040E85FE30E94250488232CF481E090E030
:101FE0009AA389A33FC06BA17CA18DA19EA120E0F3
:101FF0003FEF4FE757E40E94C50318164CF56FA159
:1020000078A589A59AA520E030E040E251E40E943D
:102010001F02DC01CB01BC01CD010E944900DC01A3
:10202000CB019AA389A30FC088EC90E098A38F8F6F
:102030008F8D98A10197F1F798A38F8F89A19AA10D
:1020400001979AA389A389A19AA1009769F714C05F
:102050006BA17CA18DA19EA10E944900DC01CB0156
:102060009AA389A389A19AA19E8F8D8F8D8D9E8D14
:102070000197F1F79E8F8D8F82E06DAD0E94110E5A
:1020800080E090E0A0E0B0E4898F9A8FAB8FBC8FA6
:10209000698D7A8D8B8D9C8D20E030E04AEF54E481
:1020A0000E941F02DC01CB018D8B9E8BAF8BB88F02
:1020B0006D897E898F89988D20E030E040E85FE36C
:1020C0000E94250488232CF481E090E09C8B8B8B6C
:1020D0003FC06D897E898F89988D20E03FEF4FE763
:1020E00057E40E94C50318164CF5698D7A8D8B8DC7
:1020F0009C8D20E030E040E251E40E941F02DC01B0
:10210000CB01BC01CD010E944900DC01CB019C8BBD
:102110008B8B0FC088EC90E09A8B898B89899A8988
:102120000197F1F79A8B898B8B899C8901979C8BFE
:102130008B8B8B899C89009769F714C06D897E8988
:102140008F89988D0E944900DC01CB019C8B8B8B81
:102150008B899C89988B8F878F8598890197F1F758
:10216000988B8F8781E06EAD0E94110E80E090E029
:10217000A0E0B0E48B879C87AD87BE876B857C85AC
:102180008D859E8520E030E04AEF54E40E941F02D6
:10219000DC01CB018F839887A987BA876F81788507
:1021A00089859A8520E030E040E85FE30E942504BD
:1021B00088232CF481E090E09E838D833FC06F8163
:1021C000788589859A8520E03FEF4FE757E40E94A4
:1021D000C50318164CF56B857C858D859E8520E0A2
:1021E00030E040E251E40E941F02DC01CB01BC015F
:1021F000CD010E944900DC01CB019E838D830FC07D
:1022000088EC90E09C838B838B819C810197F1F714
:102210009C838B838D819E8101979E838D838D818D
:102220009E81009769F714C06F81788589859A85AA
:102230000E944900DC01CB019E838D838D819E81AC
:102240009A83898389819A810197F1F79A83898397
:1022500089AD9AAD01969AAF89AF89AD9AAD8233B7
:1022600091050CF41DCEC05CDF4F0FB6F894DEBFB5
:102270000FBECDBFCF91DF910895DF93CF93CDB740
:10228000DEB780E063E041E00E940E0980E062E09A
:1022900041E00E940E0981E065E041E00E940E09E4
:1022A00081E066E041E00E940E09CF91DF91089540
:1022B000DF93CF93CDB7DEB764970FB6F894DEBF48
:1022C0000FBECDBF0E94F9110E94E20D0E940712BD
:1022D000DC01CB01898B9A8BAB8BBC8B69897A89AA
:1022E0008B899C8920E030E040E251E40E941F028B
:1022F000DC01CB01BC01CD010E944900DC01CB0116
:10230000988B8F878F8598890E94FB0E80E090E0E4
:10231000AAE7B4E48B879C87AD87BE876B857C85F5
:102320008D859E8520E030E04AEF54E40E941F0234
:10233000DC01CB018F839887A987BA876F81788565
:1023400089859A8520E030E040E85FE30E9425041B
:1023500088232CF481E090E09E838D833FC06F81C1
:10236000788589859A8520E03FEF4FE757E40E9402
:10237000C50318164CF56B857C858D859E8520E000
:1023800030E040E251E40E941F02DC01CB01BC01BD
:10239000CD010E944900DC01CB019E838D830FC0DB
:1023A00088EC90E09C838B838B819C810197F1F773
:1023B0009C838B838D819E8101979E838D838D81EC
:1023C0009E81009769F782CF6F81788589859A858C
:1023D0000E944900DC01CB019E838D838D819E810B
:1023E0009A83898389819A810197F1F79A838983F6
:1023F0006DCFDF93CF93CDB7DEB780E061E040E0F3
:102400000E9424080E94970DCF91DF910895DF93D9
:10241000CF93CDB7DEB72A970FB6F894DEBF0FBEC5
:10242000CDBF81E00E94A60D9A87898789859A850C
:10243000CC01A0E0B0E0BC01CD010E94A904DC0108
:10244000CB01BC01CD0120E030E44CE955E40E9411
:102450001F02DC01CB01BC01CD0120E030E040E8EF
:1024600054E40E941903DC01CB018D839E83AF836A
:10247000B8876D817E818F81988520E030E040E2D1
:1024800051E40E941903DC01CB0189839A83AB8359
:10249000BC8389819A81AB81BC81BC01CD012A9624
:1024A0000FB6F894DEBF0FBECDBFCF91DF91089578
:1024B0000F931F93DF93CF93CDB7DEB7CA55D040AC
:1024C0000FB6F894DEBF0FBECDBF80E063E041E001
:1024D0000E94240880E062E041E00E94240881E03C
:1024E00060E041E00E94240881E061E041E00E9458
:1024F000240881E062E041E00E94240881E064E079
:1025000041E00E942408FE01E95AFF4F80E090E07C
:10251000ACE0B2E480839183A283B3838E010D5A31
:102520001F4FFE01E95AFF4F6081718182819381C3
:1025300020E030E04AEF54E40E941F02DC01CB01AE
:10254000F80180839183A283B383FE01ED5AFF4F8C
:10255000608171818281938120E030E040E85FE317
:102560000E942504882344F4FE01EF5AFF4F81E0C6
:1025700090E09183808364C0FE01ED5AFF4F60813B
:1025800071818281938120E03FEF4FE757E40E9401
:10259000C50318160CF043C0FE01E95AFF4F6081D5
:1025A00071818281938120E030E040E251E40E9419
:1025B0001F02DC01CB018E010F5A1F4FBC01CD0160
:1025C0000E944900DC01CB01F801918380831FC088
:1025D000FE01E15BFF4F88EC90E091838083FE0178
:1025E000E15BFF4F808191810197F1F7FE01E15B93
:1025F000FF4F91838083DE01AF5ABF4FFE01EF5A38
:10260000FF4F80819181019711969C938E93FE01DB
:10261000EF5AFF4F808191810097D1F627C08E013C
:102620000F5A1F4FFE01ED5AFF4F60817181828169
:1026300093810E944900DC01CB01F80191838083E2
:10264000DE01A35BBF4FFE01EF5AFF4F80819181F6
:102650008D939C93FE01E35BFF4F808191810197F5
:10266000F1F7FE01E35BFF4F9183808380E063E03D
:1026700040E00E940E0982E00E945D1880E062E066
:1026800041E00E940E09FE01E75BFF4F80E090E011
:10269000A0E8BFE380839183A283B3838E010B5BA9
:1026A0001F4FFE01E75BFF4F608171818281938143
:1026B00020E030E04AEF54E40E941F02DC01CB012D
:1026C000F80180839183A283B383FE01EB5BFF4F0C
:1026D000608171818281938120E030E040E85FE396
:1026E0000E942504882344F4FE01ED5BFF4F81E046
:1026F00090E09183808364C0FE01EB5BFF4F6081BB
:1027000071818281938120E03FEF4FE757E40E947F
:10271000C50318160CF043C0FE01E75BFF4F608154
:1027200071818281938120E030E040E251E40E9497
:102730001F02DC01CB018E010D5B1F4FBC01CD01DF
:102740000E944900DC01CB01F801918380831FC006
:10275000FE01EF5BFF4F88EC90E091838083FE01E8
:10276000EF5BFF4F808191810197F1F7FE01EF5BF5
:10277000FF4F91838083DE01AD5BBF4FFE01ED5BB8
:10278000FF4F80819181019711969C938E93FE015A
:10279000ED5BFF4F808191810097D1F624C08E01BF
:1027A0000D5B1F4FFE01EB5BFF4F608171818281EA
:1027B00093810E944900DC01CB01F8019183808361
:1027C000FE01ED5BFF4F80819181FE01FF969183B9
:1027D0008083FE01FF96808191810197F1F7FE01D0
:1027E000FF969183808380E062E040E00E940E09C2
:1027F00088E20E94FE1580E090E0A4E3B2E48BAF93
:102800009CAFADAFBEAF6BAD7CAD8DAD9EAD2BEAD9
:102810003AEA4AE250E40E941F02DC01CB018FAB8E
:1028200098AFA9AFBAAF6FA978AD89AD9AAD20E0E6
:1028300030E040E85FE30E94250488231CF481E037
:102840008EAB91C06FA978AD89AD9AAD20E030E034
:102850004FE753E40E94C50318160CF07BC06BAD24
:102860007CAD8DAD9EAD20E030E04AE754E40E949F
:102870001903DC01CB018AAB9BABACABBDAB6AA946
:102880007BA98CA99DA920E030E04AEF54E40E9486
:102890001F02DC01CB018EA79FA7A8ABB9AB6EA529
:1028A0007FA588A999A920E030E040E85FE30E9475
:1028B000250488232CF481E090E09DA78CA73FC0DD
:1028C0006EA57FA588A999A920E03FEF4FE757E4BF
:1028D0000E94C50318164CF56AA97BA98CA99DA96D
:1028E00020E030E040E251E40E941F02DC01CB0115
:1028F000BC01CD010E944900DC01CB019DA78CA742
:102900000FC088EC90E09BA78AA78AA59BA501979A
:10291000F1F79BA78AA78CA59DA501979DA78CA7DA
:102920008CA59DA5009769F724C06EA57FA588A9F1
:1029300099A90E944900DC01CB019DA78CA78CA519
:102940009DA599A788A788A599A50197F1F799A7AB
:1029500088A70FC06FA978AD89AD9AAD0E944900D4
:10296000DC01CB018EAB8EA98FA38FA18A95F1F7E5
:102970008FA38FE00E94FE1580E090E0A4E3B2E414
:102980008BA39CA3ADA3BEA36BA17CA18DA19EA193
:102990002BEA3AEA4AE250E40E941F02DC01CB0132
:1029A0008F8F98A3A9A3BAA36F8D78A189A19AA1AB
:1029B00020E030E040E85FE30E94250488231CF417
:1029C00081E08E8F91C06F8D78A189A19AA120E0BE
:1029D00030E04FE753E40E94C50318160CF07BC0AB
:1029E0006BA17CA18DA19EA120E030E04AE754E4D8
:1029F0000E941903DC01CB018A8F9B8FAC8FBD8FA6
:102A00006A8D7B8D8C8D9D8D20E030E04AEF54E403
:102A10000E941F02DC01CB018E8B9F8BA88FB98F88
:102A20006E897F89888D998D20E030E040E85FE3F2
:102A30000E94250488232CF481E090E09D8B8C8BF0
:102A40003FC06E897F89888D998D20E03FEF4FE7E9
:102A500057E40E94C50318164CF56A8D7B8D8C8D4A
:102A60009D8D20E030E040E251E40E941F02DC0135
:102A7000CB01BC01CD010E944900DC01CB019D8B43
:102A80008C8B0FC088EC90E09B8B8A8B8A899B890A
:102A90000197F1F79B8B8A8B8C899D8901979D8B80
:102AA0008C8B8C899D89009769F724C06E897F89FA
:102AB000888D998D0E944900DC01CB019D8B8C8B08
:102AC0008C899D89998B888B888999890197F1F7E1
:102AD000998B888B0FC06F8D78A189A19AA10E94D4
:102AE0004900DC01CB018E8F8E8D8F878F858A9573
:102AF000F1F78F8781E00E94FE1580E090E0A0E072
:102B0000B0E48B879C87AD87BE876B857C858D8580
:102B10009E8520E030E04AEF54E40E941F02DC0171
:102B2000CB018F839887A987BA876F81788589853C
:102B30009A8520E030E040E85FE30E942504882386
:102B40002CF481E090E09E838D833FC06F81788577
:102B500089859A8520E03FEF4FE757E40E94C5033F
:102B600018164CF56B857C858D859E8520E030E0C0
:102B700040E251E40E941F02DC01CB01BC01CD0107
:102B80000E944900DC01CB019E838D830FC088EC3D
:102B900090E09C838B838B819C810197F1F79C83D0
:102BA0008B838D819E8101979E838D838D819E81F4
:102BB000009769F714C06F81788589859A850E948E
:102BC0004900DC01CB019E838D838D819E819A8398
:102BD000898389819A810197F1F79A83898386E0B5
:102BE0000E94FE15C65ADF4F0FB6F894DEBF0FBE27
:102BF000CDBFCF91DF911F910F910895DF93CF93B8
:102C0000CDB7DEB76D970FB6F894DEBF0FBECDBF60
:102C10008D8F80E063E040E00E940E098D8D8295EB
:102C20008F700E945D1880E062E041E00E940E0912
:102C300080E090E0A0E8BFE3898F9A8FAB8FBC8FD4
:102C4000698D7A8D8B8D9C8D20E030E04AEF54E4C5
:102C50000E941F02DC01CB018D8B9E8BAF8BB88F46
:102C60006D897E898F89988D20E030E040E85FE3B0
:102C70000E94250488232CF481E090E09C8B8B8BB0
:102C80003FC06D897E898F89988D20E03FEF4FE7A7
:102C900057E40E94C50318164CF5698D7A8D8B8D0B
:102CA0009C8D20E030E040E251E40E941F02DC01F4
:102CB000CB01BC01CD010E944900DC01CB019C8B02
:102CC0008B8B0FC088EC90E09A8B898B89899A89CD
:102CD0000197F1F79A8B898B8B899C8901979C8B43
:102CE0008B8B8B899C89009769F714C06D897E89CD
:102CF0008F89988D0E944900DC01CB019C8B8B8BC6
:102D00008B899C89988B8F878F8598890197F1F79C
:102D1000988B8F8780E062E040E00E940E098D8DE5
:102D20000E945D1880E062E041E00E940E0980E0B0
:102D300090E0A0E8BFE38B879C87AD87BE876B855B
:102D40007C858D859E8520E030E04AEF54E40E942A
:102D50001F02DC01CB018F839887A987BA876F8117
:102D6000788589859A8520E030E040E85FE30E941D
:102D7000250488232CF481E090E09E838D833FC05E
:102D80006F81788589859A8520E03FEF4FE757E48A
:102D90000E94C50318164CF56B857C858D859E8534
:102DA00020E030E040E251E40E941F02DC01CB0150
:102DB000BC01CD010E944900DC01CB019E838D83C3
:102DC0000FC088EC90E09C838B838B819C81019762
:102DD000F1F79C838B838D819E8101979E838D83E8
:102DE0008D819E81009769F714C06F8178858985F0
:102DF0009A850E944900DC01CB019E838D838D81E1
:102E00009E819A83898389819A810197F1F79A83B8
:102E1000898380E062E040E00E940E096D960FB663
:102E2000F894DEBF0FBECDBFCF91DF910895DF9341
:102E3000CF93CDB7DEB76D970FB6F894DEBF0FBE58
:102E4000CDBF8D8F80E063E041E00E940E098D8D43
:102E500082958F700E945D1880E062E041E00E94E0
:102E60000E0980E090E0A0E8BFE3898F9A8FAB8FD6
:102E7000BC8F698D7A8D8B8D9C8D20E030E04AEF80
:102E800054E40E941F02DC01CB018D8B9E8BAF8B23
:102E9000B88F6D897E898F89988D20E030E040E879
:102EA0005FE30E94250488232CF481E090E09C8B52
:102EB0008B8B3FC06D897E898F89988D20E03FEF95
:102EC0004FE757E40E94C50318164CF5698D7A8DBB
:102ED0008B8D9C8D20E030E040E251E40E941F0287
:102EE000DC01CB01BC01CD010E944900DC01CB011A
:102EF0009C8B8B8B0FC088EC90E09A8B898B898997
:102F00009A890197F1F79A8B898B8B899C89019714
:102F10009C8B8B8B8B899C89009769F714C06D897A
:102F20007E898F89988D0E944900DC01CB019C8BA2
:102F30008B8B8B899C89988B8F878F85988901973C
:102F4000F1F7988B8F8780E062E040E00E940E09E5
:102F50008D8D0E945D1880E062E041E00E940E09C4
:102F600080E090E0A0E8BFE38B879C87AD87BE87B9
:102F70006B857C858D859E8520E030E04AEF54E4AA
:102F80000E941F02DC01CB018F839887A987BA8733
:102F90006F81788589859A8520E030E040E85FE39D
:102FA0000E94250488232CF481E090E09E838D8389
:102FB0003FC06F81788589859A8520E03FEF4FE794
:102FC00057E40E94C50318164CF56B857C858D85EA
:102FD0009E8520E030E040E251E40E941F02DC01C7
:102FE000CB01BC01CD010E944900DC01CB019E83D5
:102FF0008D830FC088EC90E09C838B838B819C81B8
:103000000197F1F79C838B838D819E8101979E832D
:103010008D838D819E81009769F714C06F817885BB
:1030200089859A850E944900DC01CB019E838D83AE
:103030008D819E819A83898389819A810197F1F795
:103040009A83898380E062E040E00E940E096D96D9
:103050000FB6F894DEBF0FBECDBFCF91DF910895BC
:10306000DF93CF9300D00F92CDB7DEB79B838A83D7
:103070008A819B810097D9F019820EC08981282FFF
:1030800030E08A819B81FC01E20FF31F80810E9466
:10309000171789818F5F89838981282F30E08A8182
:1030A0009B81FC01E20FF31F8081882339F70F9089
:1030B0000F900F90CF91DF910895DF93CF930F92F0
:1030C000CDB7DEB789838981882F90E081709070B9
:1030D000882331F081E060E041E00E940E090CC0DD
:1030E0008981882F90E081709070009729F481E0A9
:1030F00060E040E00E940E0989818695882F90E06B
:1031000081709070882331F081E061E041E00E949D
:103110000E090DC089818695882F90E0817090708E
:10312000009729F481E061E040E00E940E09898166
:1031300086958695882F90E081709070882331F075
:1031400081E062E041E00E940E090EC0898186950F
:103150008695882F90E081709070009729F481E027
:1031600062E040E00E940E098981869586958695E9
:10317000882F90E081709070882331F081E064E0C6
:1031800041E00E940E090FC089818695869586953B
:10319000882F90E081709070009729F481E064E0BE
:1031A00040E00E940E090F90CF91DF910895DF93C8
:1031B000CF93CDB7DEB76B970FB6F894DEBF0FBED7
:1031C000CDBF688F798F8A8F9B8F1A82888D998D5A
:1031D000AA8DBB8D0097A105B10521F480E30E9463
:1031E00017176AC0888D998DAA8DBB8DBB230CF0F3
:1031F00043C0888D998DAA8DBB8DB095A095909573
:1032000081959F4FAF4FBF4F888F998FAA8FBB8FEC
:103210008DE20E94171730C0888D998DAA8DBB8DC5
:103220002AE030E040E050E0BC01CD010E949A1F4E
:10323000DC01CB018B838A81282F30E08B81482FE2
:10324000405DCE010496FC01E20FF31F4083888DA0
:10325000998DAA8DBB8D2AE030E040E050E0BC01A2
:10326000CD010E949A1FDA01C901888F998FAA8F18
:10327000BB8F8A818F5F8A83888D998DAA8DBB8D44
:10328000181619061A061B063CF28A81815089839A
:1032900010C08981282F332727FD3095CE01049651
:1032A000FC01E20FF31F80810E9417178981815072
:1032B0008983898188236CF76B960FB6F894DEBFFB
:1032C0000FBECDBFCF91DF910895DF93CF9300D094
:1032D000CDB7DEB79A83898389819A8120E137E26D
:1032E000B9010E94861F28EE33E0B9010E94861FB3
:1032F000CB01805D0E94171789819A8128EE33E007
:10330000B9010E94861F24E630E0B9010E94861FA1
:10331000CB01805D0E94171789819A8124E630E0F5
:10332000B9010E94861F2AE030E0B9010E94861F81
:10333000CB01805D0E94171789819A812AE030E0D5
:10334000B9010E94861F805D0E9417170F900F9091
:10335000CF91DF910895DF93CF93CDB7DEB781E0B2
:103360000E94FE15CF91DF910895DF93CF93CDB7E3
:10337000DEB7C054D0400FB6F894DEBF0FBECDBF4D
:103380008AAF6BAF4CAF8AAD882309F016C18BAD05
:10339000282F30E021963FAF2EAF219721968EAD9A
:1033A0009FAD2197009749F021962EAD3FAD219713
:1033B0002130310509F481C013C219AE78C080E113
:1033C0000E94FE1580E090E0A8E4B3E48DAB9EABD4
:1033D000AFABB8AF6DA97EA98FA998AD20E030E062
:1033E0004AEF54E40E941F02DC01CB0189AB9AAB87
:1033F000ABABBCAB69A97AA98BA99CA920E030E052
:1034000040E85FE30E94250488232CF481E090E0EB
:1034100098AB8FA73FC069A97AA98BA99CA920E086
:103420003FEF4FE757E40E94C50318164CF56DA90E
:103430007EA98FA998AD20E030E040E251E40E94DF
:103440001F02DC01CB01BC01CD010E944900DC015F
:10345000CB0198AB8FA70FC088EC90E09EA78DA7FB
:103460008DA59EA50197F1F79EA78DA78FA598A979
:10347000019798AB8FA78FA598A9009769F714C0FB
:1034800069A97AA98BA99CA90E944900DC01CB01FA
:1034900098AB8FA78FA598A99CA78BA78BA59CA558
:1034A0000197F1F79CA78BA789AD8F5F89AF99AD85
:1034B0008CAD981708F483CF93C119AE78C084E11E
:1034C0000E94FE1580E090E0A8E4B3E48FA398A7E3
:1034D000A9A7BAA76FA178A589A59AA520E030E091
:1034E0004AEF54E40E941F02DC01CB018BA39CA392
:1034F000ADA3BEA36BA17CA18DA19EA120E030E075
:1035000040E85FE30E94250488232CF481E090E0EA
:103510009AA389A33FC06BA17CA18DA19EA120E0AD
:103520003FEF4FE757E40E94C50318164CF56FA113
:1035300078A589A59AA520E030E040E251E40E94F8
:103540001F02DC01CB01BC01CD010E944900DC015E
:10355000CB019AA389A30FC088EC90E098A38F8F2A
:103560008F8D98A10197F1F798A38F8F89A19AA1C8
:1035700001979AA389A389A19AA1009769F714C01A
:103580006BA17CA18DA19EA10E944900DC01CB0111
:103590009AA389A389A19AA19E8F8D8F8D8D9E8DCF
:1035A0000197F1F79E8F8D8F89AD8F5F89AF99ADB0
:1035B0008CAD981708F483CF13C18AAD813009F020
:1035C0000FC18BAD282F30E03EAF2DAF8DAD9EAD3E
:1035D000009739F02DAD3EAD2130310509F481C0A1
:1035E000FFC019AE78C088E10E94FE1580E090E02F
:1035F000A8E4B3E4898F9A8FAB8FBC8F698D7A8DE5
:103600008B8D9C8D20E030E04AEF54E40E941F0235
:10361000DC01CB018D8B9E8BAF8BB88F6D897E8942
:103620008F89988D20E030E040E85FE30E94250418
:1036300088232CF481E090E09C8B8B8B3FC06D89BC
:103640007E898F89988D20E03FEF4FE757E40E94F5
:10365000C50318164CF5698D7A8D8B8D9C8D20E0F5
:1036600030E040E251E40E941F02DC01CB01BC01CA
:10367000CD010E944900DC01CB019C8B8B8B0FC0DC
:1036800088EC90E09A8B898B89899A890197F1F768
:103690009A8B898B8B899C8901979C8B8B8B8B89CF
:1036A0009C89009769F714C06D897E898F89988DF0
:1036B0000E944900DC01CB019C8B8B8B8B899C8900
:1036C000988B8F878F8598890197F1F7988B8F87D3
:1036D00089AD8F5F89AF99AD8CAD981708F483CF12
:1036E0007FC019AE78C08CE10E94FE1580E090E0AA
:1036F000A8E4B3E48B879C87AD87BE876B857C8508
:103700008D859E8520E030E04AEF54E40E941F0240
:10371000DC01CB018F839887A987BA876F81788571
:1037200089859A8520E030E040E85FE30E94250427
:1037300088232CF481E090E09E838D833FC06F81CD
:10374000788589859A8520E03FEF4FE757E40E940E
:10375000C50318164CF56B857C858D859E8520E00C
:1037600030E040E251E40E941F02DC01CB01BC01C9
:10377000CD010E944900DC01CB019E838D830FC0E7
:1037800088EC90E09C838B838B819C810197F1F77F
:103790009C838B838D819E8101979E838D838D81F8
:1037A0009E81009769F714C06F81788589859A8515
:1037B0000E944900DC01CB019E838D838D819E8117
:1037C0009A83898389819A810197F1F79A83898302
:1037D00089AD8F5F89AF99AD8CAD981708F483CF11
:1037E000C05CDF4F0FB6F894DEBF0FBECDBFCF91E8
:1037F000DF910895DF93CF9300D0CDB7DEB78A83F2
:1038000087E089831CC08A81282F30E0898199272D
:1038100087FD9095A90102C0559547958A95E2F7D5
:10382000CA0181709070882321F081E30E941717EC
:1038300003C080E30E9417178981815089838981A1
:1038400088230CF70F900F90CF91DF910895DF93AD
:10385000CF9300D00F92CDB7DEB78B83198287E06C
:103860008A8321C08B81282F30E08A81992787FDA8
:103870009095A90102C0559547958A95E2F7CA012E
:1038800081709070882331F081E30E94171781E0E6
:10389000898306C08981813019F480E30E9417175B
:1038A0008A8181508A838A818823E4F60F900F9061
:1038B0000F90CF91DF910895DF93CF9300D0CDB7D4
:1038C000DEB789836A838981882329F48A818058B5
:1038D0000E94FE1517C08981813029F48A818054A5
:1038E0000E94FE150FC08981823029F48A818C568E
:1038F0000E94FE1507C08981833021F48A818C5291
:103900000E94FE150F900F90CF91DF910895DF93E5
:10391000CF9300D00F92CDB7DEB78B838B8182958A
:103920008F708A838B818F7089838A818A3028F493
:103930008A81805D0E94171704C08A81895C0E9479
:10394000171789818A3028F48981805D0E941717B2
:1039500004C08981895C0E9417170F900F900F9007
:10396000CF91DF910895DF93CF9300D000D0CDB7F2
:10397000DEB78A836B834C838A816B810E945C1CD7
:10398000198206C080E20E94171789818F5F8983A0
:1039900099818C819817B0F30F900F900F900F9032
:1039A000CF91DF9108950F931F93DF93CF93CDB7FE
:1039B000DEB7CC54D0400FB6F894DEBF0FBECDBFFB
:1039C000FE01E65BFF4F91838083FE01E45BFF4FC6
:1039D0006083FE01E45BFF4F8081882F90E00896B2
:1039E000880F991F880F991F880F991F0E94FE1535
:1039F000FE01EB5BFF4F80E090E0A8E4B2E480833F
:103A00009183A283B3838E010F5B1F4FFE01EB5B9B
:103A1000FF4F60817181828193812BEA3AEA4AE209
:103A200050E40E941F02DC01CB01F80180839183E6
:103A3000A283B383FE01EF5BFF4F608171818281BE
:103A4000938120E030E040E85FE30E942504882372
:103A500034F481E0FE01E05CFF4F80839DC0FE01F5
:103A6000EF5BFF4F608171818281938120E030E0C4
:103A70004FE753E40E94C50318160CF07EC0FE0108
:103A8000EB5BFF4F608171818281938120E030E0A8
:103A90004AE754E40E941903DC01CB018CAF9DAFCF
:103AA000AEAFBFAF6CAD7DAD8EAD9FAD20E030E071
:103AB0004AEF54E40E941F02DC01CB0188AF99AFAA
:103AC000AAAFBBAF68AD79AD8AAD9BAD20E030E069
:103AD00040E85FE30E94250488232CF481E090E015
:103AE0009FAB8EAB3FC068AD79AD8AAD9BAD20E09A
:103AF0003FEF4FE757E40E94C50318164CF56CAD35
:103B00007DAD8EAD9FAD20E030E040E251E40E94FB
:103B10001F02DC01CB01BC01CD010E944900DC0188
:103B2000CB019FAB8EAB0FC088EC90E09DAB8CAB14
:103B30008CA99DA90197F1F79DAB8CAB8EA99FA98C
:103B400001979FAB8EAB8EA99FA9009769F72DC0F7
:103B500068AD79AD8AAD9BAD0E944900DC01CB0117
:103B60009FAB8EAB8EA99FA99BAB8AAB8AA99BA961
:103B70000197F1F79BAB8AAB18C0FE01EF5BFF4FDB
:103B800060817181828193810E944900DC01CB01B7
:103B9000FE01E05CFF4F8083FE01E05CFF4F80810F
:103BA00089AB89A98A95F1F789ABFE01E75BFF4FE5
:103BB0001082D8C0FE01E75BFF4F8081282F30E0E4
:103BC000FE01E65BFF4F80819181FC01E20FF31F54
:103BD00080810E94171780E090E0A8ECB2E48DA7E6
:103BE0009EA7AFA7B8AB6DA57EA58FA598A92BEA18
:103BF0003AEA4AE250E40E941F02DC01CB0189A7A5
:103C00009AA7ABA7BCA769A57AA58BA59CA520E020
:103C100030E040E85FE30E94250488231CF481E043
:103C200088A791C069A57AA58BA59CA520E030E066
:103C30004FE753E40E94C50318160CF07BC06DA536
:103C40007EA58FA598A920E030E04AE754E40E94C1
:103C50001903DC01CB018CA39DA3AEA3BFA36CA170
:103C60007DA18EA19FA120E030E04AEF54E40E94A4
:103C70001F02DC01CB0188A399A3AAA3BBA368A15F
:103C800079A18AA19BA120E030E040E85FE30E9497
:103C9000250488232CF481E090E09F8F8E8F3FC015
:103CA00068A179A18AA19BA120E03FEF4FE757E4EB
:103CB0000E94C50318164CF56CA17DA18EA19FA191
:103CC00020E030E040E251E40E941F02DC01CB0121
:103CD000BC01CD010E944900DC01CB019F8F8E8F7A
:103CE0000FC088EC90E09D8F8C8F8C8D9D8D0197FF
:103CF000F1F79D8F8C8F8E8D9F8D01979F8F8E8F6B
:103D00008E8D9F8D009769F724C068A179A18AA143
:103D10009BA10E944900DC01CB019F8F8E8F8E8D6D
:103D20009F8D9B8F8A8F8A8D9B8D0197F1F79B8F3B
:103D30008A8F0FC069A57AA58BA59CA50E94490012
:103D4000DC01CB0188A788A5898F898D8A95F1F739
:103D5000898FDE01A75BBF4FFE01E75BFF4F8081CC
:103D60008F5F8C93FE01E75BFF4F8081883008F402
:103D700021CF80E80E94FE1580E090E0A8ECB2E43C
:103D80008D8B9E8BAF8BB88F6D897E898F89988D37
:103D90002BEA3AEA4AE250E40E941F02DC01CB011E
:103DA000898B9A8BAB8BBC8B69897A898B899C892F
:103DB00020E030E040E85FE30E94250488231CF403
:103DC00081E0888B91C069897A898B899C8920E000
:103DD00030E04FE753E40E94C50318160CF07BC097
:103DE0006D897E898F89988D20E030E04AE754E420
:103DF0000E941903DC01CB018C879D87AE87BF87AA
:103E00006C857D858E859F8520E030E04AEF54E407
:103E10000E941F02DC01CB0188879987AA87BB8794
:103E2000688579858A859B8520E030E040E85FE3FE
:103E30000E94250488232CF481E090E09F838E83E8
:103E40003FC0688579858A859B8520E03FEF4FE7F5
:103E500057E40E94C50318164CF56C857D858E8548
:103E60009F8520E030E040E251E40E941F02DC0127
:103E7000CB01BC01CD010E944900DC01CB019F8335
:103E80008E830FC088EC90E09D838C838C819D8114
:103E90000197F1F79D838C838E819F8101979F838A
:103EA0008E838E819F81009769F724C0688579850C
:103EB0008A859B850E944900DC01CB019F838E830C
:103EC0008E819F819B838A838A819B810197F1F7F1
:103ED0009B838A830FC069897A898B899C890E9418
:103EE0004900DC01CB01888B8889898389818A9587
:103EF000F1F78983C45BDF4F0FB6F894DEBF0FBEC6
:103F0000CDBFCF91DF911F910F910895AA1BBB1BCD
:103F100051E107C0AA1FBB1FA617B70710F0A61BC9
:103F2000B70B881F991F5A95A9F780959095BC01EA
:103F3000CD01089597FB092E05260ED057FD04D01C
:103F400014D00AD0001C38F4509540953095219536
:103F50003F4F4F4F5F4F0895F6F7909580957095BE
:103F600061957F4F8F4F9F4F0895A1E21A2EAA1B94
:103F7000BB1BFD010DC0AA1FBB1FEE1FFF1FA21719
:103F8000B307E407F50720F0A21BB30BE40BF50B16
:103F9000661F771F881F991F1A9469F7609570959F
:103FA000809590959B01AC01BD01CF0108952F92A2
:103FB0003F924F925F926F927F928F929F92AF92B9
:103FC000BF92CF92DF92EF92FF920F931F93CF9306
:103FD000DF93CDB7DEB7CA1BDB0B0FB6F894DEBF9D
:103FE0000FBECDBF09942A88398848885F846E84C3
:103FF0007D848C849B84AA84B984C884DF80EE800D
:10400000FD800C811B81AA81B981CE0FD11D0FB615
:10401000F894DEBF0FBECDBFED010895F894FFCF39
:10402000000000000000000000010202030303037F
:104030000404040404040404050505050505050538
:104040000505050505050505060606060606060618
:104050000606060606060606060606060606060600
:1040600006060606060606060707070707070707E8
:1040700007070707070707070707070707070707D0
:1040800007070707070707070707070707070707C0
:1040900007070707070707070707070707070707B0
:1040A0000707070707070707080808080808080898
:1040B0000808080808080808080808080808080880
:1040C0000808080808080808080808080808080870
:1040D0000808080808080808080808080808080860
:1040E0000808080808080808080808080808080850
:1040F0000808080808080808080808080808080840
:10410000080808080808080808080808080808082F
:10411000080808080808080808080808080808081F
:10412000080808080808080800000000000000004F
:10413000000000000000000000000101010100007B
:08414000000000000000000077
:00000001FF
